{
    "_format": "hh-sol-artifact-1",
    "contractName": "DemeritSoulboundERC721",
    "sourceName": "contracts/soulboundERC721/DemeritSoulboundERC721.sol",
    "abi": [
        {
            "inputs": [
                {
                    "internalType": "address",
                    "name": "owner",
                    "type": "address"
                },
                {
                    "internalType": "address",
                    "name": "demerit",
                    "type": "address"
                },
                {
                    "internalType": "string",
                    "name": "name",
                    "type": "string"
                },
                {
                    "internalType": "string",
                    "name": "symbol",
                    "type": "string"
                },
                {
                    "internalType": "string",
                    "name": "uri",
                    "type": "string"
                }
            ],
            "stateMutability": "nonpayable",
            "type": "constructor"
        },
        {
            "anonymous": false,
            "inputs": [
                {
                    "indexed": true,
                    "internalType": "address",
                    "name": "owner",
                    "type": "address"
                },
                {
                    "indexed": true,
                    "internalType": "address",
                    "name": "approved",
                    "type": "address"
                },
                {
                    "indexed": true,
                    "internalType": "uint256",
                    "name": "tokenId",
                    "type": "uint256"
                }
            ],
            "name": "Approval",
            "type": "event"
        },
        {
            "anonymous": false,
            "inputs": [
                {
                    "indexed": true,
                    "internalType": "address",
                    "name": "owner",
                    "type": "address"
                },
                {
                    "indexed": true,
                    "internalType": "address",
                    "name": "operator",
                    "type": "address"
                },
                {
                    "indexed": false,
                    "internalType": "bool",
                    "name": "approved",
                    "type": "bool"
                }
            ],
            "name": "ApprovalForAll",
            "type": "event"
        },
        {
            "anonymous": false,
            "inputs": [
                {
                    "indexed": true,
                    "internalType": "bytes32",
                    "name": "role",
                    "type": "bytes32"
                },
                {
                    "indexed": true,
                    "internalType": "bytes32",
                    "name": "previousAdminRole",
                    "type": "bytes32"
                },
                {
                    "indexed": true,
                    "internalType": "bytes32",
                    "name": "newAdminRole",
                    "type": "bytes32"
                }
            ],
            "name": "RoleAdminChanged",
            "type": "event"
        },
        {
            "anonymous": false,
            "inputs": [
                {
                    "indexed": true,
                    "internalType": "bytes32",
                    "name": "role",
                    "type": "bytes32"
                },
                {
                    "indexed": true,
                    "internalType": "address",
                    "name": "account",
                    "type": "address"
                },
                {
                    "indexed": true,
                    "internalType": "address",
                    "name": "sender",
                    "type": "address"
                }
            ],
            "name": "RoleGranted",
            "type": "event"
        },
        {
            "anonymous": false,
            "inputs": [
                {
                    "indexed": true,
                    "internalType": "bytes32",
                    "name": "role",
                    "type": "bytes32"
                },
                {
                    "indexed": true,
                    "internalType": "address",
                    "name": "account",
                    "type": "address"
                },
                {
                    "indexed": true,
                    "internalType": "address",
                    "name": "sender",
                    "type": "address"
                }
            ],
            "name": "RoleRevoked",
            "type": "event"
        },
        {
            "anonymous": false,
            "inputs": [
                {
                    "indexed": true,
                    "internalType": "address",
                    "name": "from",
                    "type": "address"
                },
                {
                    "indexed": true,
                    "internalType": "address",
                    "name": "to",
                    "type": "address"
                },
                {
                    "indexed": true,
                    "internalType": "uint256",
                    "name": "tokenId",
                    "type": "uint256"
                }
            ],
            "name": "Transfer",
            "type": "event"
        },
        {
            "inputs": [],
            "name": "DEFAULT_ADMIN_ROLE",
            "outputs": [
                {
                    "internalType": "bytes32",
                    "name": "",
                    "type": "bytes32"
                }
            ],
            "stateMutability": "view",
            "type": "function"
        },
        {
            "inputs": [],
            "name": "ISSUER_ROLE",
            "outputs": [
                {
                    "internalType": "bytes32",
                    "name": "",
                    "type": "bytes32"
                }
            ],
            "stateMutability": "view",
            "type": "function"
        },
        {
            "inputs": [
                {
                    "internalType": "address",
                    "name": "to",
                    "type": "address"
                },
                {
                    "internalType": "uint256",
                    "name": "tokenId",
                    "type": "uint256"
                }
            ],
            "name": "approve",
            "outputs": [],
            "stateMutability": "nonpayable",
            "type": "function"
        },
        {
            "inputs": [
                {
                    "internalType": "address",
                    "name": "receiver",
                    "type": "address"
                },
                {
                    "internalType": "uint64",
                    "name": "dealId",
                    "type": "uint64"
                }
            ],
            "name": "assign",
            "outputs": [],
            "stateMutability": "nonpayable",
            "type": "function"
        },
        {
            "inputs": [
                {
                    "internalType": "address",
                    "name": "owner",
                    "type": "address"
                }
            ],
            "name": "balanceOf",
            "outputs": [
                {
                    "internalType": "uint256",
                    "name": "",
                    "type": "uint256"
                }
            ],
            "stateMutability": "view",
            "type": "function"
        },
        {
            "inputs": [],
            "name": "claim",
            "outputs": [],
            "stateMutability": "nonpayable",
            "type": "function"
        },
        {
            "inputs": [
                {
                    "internalType": "uint256",
                    "name": "tokenId",
                    "type": "uint256"
                }
            ],
            "name": "getApproved",
            "outputs": [
                {
                    "internalType": "address",
                    "name": "",
                    "type": "address"
                }
            ],
            "stateMutability": "view",
            "type": "function"
        },
        {
            "inputs": [
                {
                    "internalType": "bytes32",
                    "name": "role",
                    "type": "bytes32"
                }
            ],
            "name": "getRoleAdmin",
            "outputs": [
                {
                    "internalType": "bytes32",
                    "name": "",
                    "type": "bytes32"
                }
            ],
            "stateMutability": "view",
            "type": "function"
        },
        {
            "inputs": [
                {
                    "internalType": "bytes32",
                    "name": "role",
                    "type": "bytes32"
                },
                {
                    "internalType": "address",
                    "name": "account",
                    "type": "address"
                }
            ],
            "name": "grantRole",
            "outputs": [],
            "stateMutability": "nonpayable",
            "type": "function"
        },
        {
            "inputs": [
                {
                    "internalType": "bytes32",
                    "name": "role",
                    "type": "bytes32"
                },
                {
                    "internalType": "address",
                    "name": "account",
                    "type": "address"
                }
            ],
            "name": "hasRole",
            "outputs": [
                {
                    "internalType": "bool",
                    "name": "",
                    "type": "bool"
                }
            ],
            "stateMutability": "view",
            "type": "function"
        },
        {
            "inputs": [
                {
                    "internalType": "address",
                    "name": "owner",
                    "type": "address"
                },
                {
                    "internalType": "address",
                    "name": "operator",
                    "type": "address"
                }
            ],
            "name": "isApprovedForAll",
            "outputs": [
                {
                    "internalType": "bool",
                    "name": "",
                    "type": "bool"
                }
            ],
            "stateMutability": "view",
            "type": "function"
        },
        {
            "inputs": [
                {
                    "internalType": "address",
                    "name": "receiver",
                    "type": "address"
                }
            ],
            "name": "issue",
            "outputs": [],
            "stateMutability": "nonpayable",
            "type": "function"
        },
        {
            "inputs": [],
            "name": "name",
            "outputs": [
                {
                    "internalType": "string",
                    "name": "",
                    "type": "string"
                }
            ],
            "stateMutability": "view",
            "type": "function"
        },
        {
            "inputs": [
                {
                    "internalType": "uint256",
                    "name": "tokenId",
                    "type": "uint256"
                }
            ],
            "name": "ownerOf",
            "outputs": [
                {
                    "internalType": "address",
                    "name": "",
                    "type": "address"
                }
            ],
            "stateMutability": "view",
            "type": "function"
        },
        {
            "inputs": [
                {
                    "internalType": "bytes32",
                    "name": "role",
                    "type": "bytes32"
                },
                {
                    "internalType": "address",
                    "name": "account",
                    "type": "address"
                }
            ],
            "name": "renounceRole",
            "outputs": [],
            "stateMutability": "nonpayable",
            "type": "function"
        },
        {
            "inputs": [
                {
                    "internalType": "bytes32",
                    "name": "role",
                    "type": "bytes32"
                },
                {
                    "internalType": "address",
                    "name": "account",
                    "type": "address"
                }
            ],
            "name": "revokeRole",
            "outputs": [],
            "stateMutability": "nonpayable",
            "type": "function"
        },
        {
            "inputs": [
                {
                    "internalType": "address",
                    "name": "from",
                    "type": "address"
                },
                {
                    "internalType": "address",
                    "name": "to",
                    "type": "address"
                },
                {
                    "internalType": "uint256",
                    "name": "tokenId",
                    "type": "uint256"
                }
            ],
            "name": "safeTransferFrom",
            "outputs": [],
            "stateMutability": "nonpayable",
            "type": "function"
        },
        {
            "inputs": [
                {
                    "internalType": "address",
                    "name": "from",
                    "type": "address"
                },
                {
                    "internalType": "address",
                    "name": "to",
                    "type": "address"
                },
                {
                    "internalType": "uint256",
                    "name": "tokenId",
                    "type": "uint256"
                },
                {
                    "internalType": "bytes",
                    "name": "data",
                    "type": "bytes"
                }
            ],
            "name": "safeTransferFrom",
            "outputs": [],
            "stateMutability": "nonpayable",
            "type": "function"
        },
        {
            "inputs": [
                {
                    "internalType": "address",
                    "name": "operator",
                    "type": "address"
                },
                {
                    "internalType": "bool",
                    "name": "approved",
                    "type": "bool"
                }
            ],
            "name": "setApprovalForAll",
            "outputs": [],
            "stateMutability": "nonpayable",
            "type": "function"
        },
        {
            "inputs": [
                {
                    "internalType": "bytes4",
                    "name": "interfaceId",
                    "type": "bytes4"
                }
            ],
            "name": "supportsInterface",
            "outputs": [
                {
                    "internalType": "bool",
                    "name": "",
                    "type": "bool"
                }
            ],
            "stateMutability": "view",
            "type": "function"
        },
        {
            "inputs": [],
            "name": "symbol",
            "outputs": [
                {
                    "internalType": "string",
                    "name": "",
                    "type": "string"
                }
            ],
            "stateMutability": "view",
            "type": "function"
        },
        {
            "inputs": [
                {
                    "internalType": "uint256",
                    "name": "tokenId",
                    "type": "uint256"
                }
            ],
            "name": "tokenURI",
            "outputs": [
                {
                    "internalType": "string",
                    "name": "",
                    "type": "string"
                }
            ],
            "stateMutability": "view",
            "type": "function"
        },
        {
            "inputs": [
                {
                    "internalType": "address",
                    "name": "from",
                    "type": "address"
                },
                {
                    "internalType": "address",
                    "name": "to",
                    "type": "address"
                },
                {
                    "internalType": "uint256",
                    "name": "tokenId",
                    "type": "uint256"
                }
            ],
            "name": "transferFrom",
            "outputs": [],
            "stateMutability": "nonpayable",
            "type": "function"
        }
    ],
    "bytecode": "0x60806040523480156200001157600080fd5b50604051620037bb380380620037bb83398181016040528101906200003791906200064d565b84838383828281600090816200004e91906200097d565b5080600190816200006091906200097d565b505050620000786000801b85620001e760201b60201c565b620000aa7f114e74f6ea3bd819998f78687bfcb11b140da08e9b7d222fa9c1f1ba1f2aa12285620001e760201b60201c565b83600960006101000a81548173ffffffffffffffffffffffffffffffffffffffff021916908373ffffffffffffffffffffffffffffffffffffffff16021790555080600a9081620000fc91906200097d565b505050505084600960006101000a81548173ffffffffffffffffffffffffffffffffffffffff021916908373ffffffffffffffffffffffffffffffffffffffff16021790555080600a90816200015391906200097d565b5083600b60006101000a81548173ffffffffffffffffffffffffffffffffffffffff021916908373ffffffffffffffffffffffffffffffffffffffff160217905550620001c77f114e74f6ea3bd819998f78687bfcb11b140da08e9b7d222fa9c1f1ba1f2aa12286620001fd60201b60201c565b620001dc6000801b86620001fd60201b60201c565b505050505062000a64565b620001f98282620002f060201b60201c565b5050565b6200020f8282620003e260201b60201c565b15620002ec5760006006600084815260200190815260200160002060000160008373ffffffffffffffffffffffffffffffffffffffff1673ffffffffffffffffffffffffffffffffffffffff16815260200190815260200160002060006101000a81548160ff021916908315150217905550620002916200044d60201b60201c565b73ffffffffffffffffffffffffffffffffffffffff168173ffffffffffffffffffffffffffffffffffffffff16837ff6391f5c32d9c69d2a47ea670b442974b53935d1edc7fd64eb21e047a839171b60405160405180910390a45b5050565b620003028282620003e260201b60201c565b620003de5760016006600084815260200190815260200160002060000160008373ffffffffffffffffffffffffffffffffffffffff1673ffffffffffffffffffffffffffffffffffffffff16815260200190815260200160002060006101000a81548160ff021916908315150217905550620003836200044d60201b60201c565b73ffffffffffffffffffffffffffffffffffffffff168173ffffffffffffffffffffffffffffffffffffffff16837f2f8788117e7eff1d82e926ec794901d17c78024a50270940304540a733656f0d60405160405180910390a45b5050565b60006006600084815260200190815260200160002060000160008373ffffffffffffffffffffffffffffffffffffffff1673ffffffffffffffffffffffffffffffffffffffff16815260200190815260200160002060009054906101000a900460ff16905092915050565b600033905090565b6000604051905090565b600080fd5b600080fd5b600073ffffffffffffffffffffffffffffffffffffffff82169050919050565b6000620004968262000469565b9050919050565b620004a88162000489565b8114620004b457600080fd5b50565b600081519050620004c8816200049d565b92915050565b600080fd5b600080fd5b6000601f19601f8301169050919050565b7f4e487b7100000000000000000000000000000000000000000000000000000000600052604160045260246000fd5b6200052382620004d8565b810181811067ffffffffffffffff82111715620005455762000544620004e9565b5b80604052505050565b60006200055a62000455565b905062000568828262000518565b919050565b600067ffffffffffffffff8211156200058b576200058a620004e9565b5b6200059682620004d8565b9050602081019050919050565b60005b83811015620005c3578082015181840152602081019050620005a6565b60008484015250505050565b6000620005e6620005e0846200056d565b6200054e565b905082815260208101848484011115620006055762000604620004d3565b5b62000612848285620005a3565b509392505050565b600082601f830112620006325762000631620004ce565b5b815162000644848260208601620005cf565b91505092915050565b600080600080600060a086880312156200066c576200066b6200045f565b5b60006200067c88828901620004b7565b95505060206200068f88828901620004b7565b945050604086015167ffffffffffffffff811115620006b357620006b262000464565b5b620006c1888289016200061a565b935050606086015167ffffffffffffffff811115620006e557620006e462000464565b5b620006f3888289016200061a565b925050608086015167ffffffffffffffff81111562000717576200071662000464565b5b62000725888289016200061a565b9150509295509295909350565b600081519050919050565b7f4e487b7100000000000000000000000000000000000000000000000000000000600052602260045260246000fd5b600060028204905060018216806200078557607f821691505b6020821081036200079b576200079a6200073d565b5b50919050565b60008190508160005260206000209050919050565b60006020601f8301049050919050565b600082821b905092915050565b600060088302620008057fffffffffffffffffffffffffffffffffffffffffffffffffffffffffffffffff82620007c6565b620008118683620007c6565b95508019841693508086168417925050509392505050565b6000819050919050565b6000819050919050565b60006200085e62000858620008528462000829565b62000833565b62000829565b9050919050565b6000819050919050565b6200087a836200083d565b62000892620008898262000865565b848454620007d3565b825550505050565b600090565b620008a96200089a565b620008b68184846200086f565b505050565b5b81811015620008de57620008d26000826200089f565b600181019050620008bc565b5050565b601f8211156200092d57620008f781620007a1565b6200090284620007b6565b8101602085101562000912578190505b6200092a6200092185620007b6565b830182620008bb565b50505b505050565b600082821c905092915050565b6000620009526000198460080262000932565b1980831691505092915050565b60006200096d83836200093f565b9150826002028217905092915050565b620009888262000732565b67ffffffffffffffff811115620009a457620009a3620004e9565b5b620009b082546200076c565b620009bd828285620008e2565b600060209050601f831160018114620009f55760008415620009e0578287015190505b620009ec85826200095f565b86555062000a5c565b601f19841662000a0586620007a1565b60005b8281101562000a2f5784890151825560018201915060208501945060208101905062000a08565b8683101562000a4f578489015162000a4b601f8916826200093f565b8355505b6001600288020188555050505b505050505050565b612d478062000a746000396000f3fe608060405234801561001057600080fd5b506004361061014d5760003560e01c806370a08231116100c3578063a217fddf1161007c578063a217fddf1461039a578063a22cb465146103b8578063b88d4fde146103d4578063c87b56dd146103f0578063d547741f14610420578063e985e9c51461043c5761014d565b806370a08231146102c657806371e928af146102f657806382aefa2414610312578063874d52161461033057806391d148541461034c57806395d89b411461037c5761014d565b8063248a9ca311610115578063248a9ca3146102085780632f2ff15d1461023857806336568abe1461025457806342842e0e146102705780634e71d92d1461028c5780636352211e146102965761014d565b806301ffc9a71461015257806306fdde0314610182578063081812fc146101a0578063095ea7b3146101d057806323b872dd146101ec575b600080fd5b61016c60048036038101906101679190611be0565b61046c565b6040516101799190611c28565b60405180910390f35b61018a61048e565b6040516101979190611cd3565b60405180910390f35b6101ba60048036038101906101b59190611d2b565b610520565b6040516101c79190611d99565b60405180910390f35b6101ea60048036038101906101e59190611de0565b610566565b005b61020660048036038101906102019190611e20565b61067d565b005b610222600480360381019061021d9190611ea9565b6106b8565b60405161022f9190611ee5565b60405180910390f35b610252600480360381019061024d9190611f00565b6106d8565b005b61026e60048036038101906102699190611f00565b6106f9565b005b61028a60048036038101906102859190611e20565b61077c565b005b6102946107b7565b005b6102b060048036038101906102ab9190611d2b565b610855565b6040516102bd9190611d99565b60405180910390f35b6102e060048036038101906102db9190611f40565b610906565b6040516102ed9190611f7c565b60405180910390f35b610310600480360381019061030b9190611f40565b6109bd565b005b61031a610a43565b6040516103279190611ee5565b60405180910390f35b61034a60048036038101906103459190611fd7565b610a67565b005b61036660048036038101906103619190611f00565b610b53565b6040516103739190611c28565b60405180910390f35b610384610bbe565b6040516103919190611cd3565b60405180910390f35b6103a2610c50565b6040516103af9190611ee5565b60405180910390f35b6103d260048036038101906103cd9190612043565b610c57565b005b6103ee60048036038101906103e991906121b8565b610c6d565b005b61040a60048036038101906104059190611d2b565b610ca8565b6040516104179190611cd3565b60405180910390f35b61043a60048036038101906104359190611f00565b610d3c565b005b6104566004803603810190610451919061223b565b610d5d565b6040516104639190611c28565b60405180910390f35b600061047782610df1565b80610487575061048682610ed3565b5b9050919050565b60606000805461049d906122aa565b80601f01602080910402602001604051908101604052809291908181526020018280546104c9906122aa565b80156105165780601f106104eb57610100808354040283529160200191610516565b820191906000526020600020905b8154815290600101906020018083116104f957829003601f168201915b5050505050905090565b600061052b82610f4d565b6004600083815260200190815260200160002060009054906101000a900473ffffffffffffffffffffffffffffffffffffffff169050919050565b600061057182610855565b90508073ffffffffffffffffffffffffffffffffffffffff168373ffffffffffffffffffffffffffffffffffffffff16036105e1576040517f08c379a00000000000000000000000000000000000000000000000000000000081526004016105d89061234d565b60405180910390fd5b8073ffffffffffffffffffffffffffffffffffffffff16610600610f98565b73ffffffffffffffffffffffffffffffffffffffff16148061062f575061062e81610629610f98565b610d5d565b5b61066e576040517f08c379a0000000000000000000000000000000000000000000000000000000008152600401610665906123df565b60405180910390fd5b6106788383610fa0565b505050565b6040517f08c379a00000000000000000000000000000000000000000000000000000000081526004016106af90612471565b60405180910390fd5b600060066000838152602001908152602001600020600101549050919050565b6106e1826106b8565b6106ea81611059565b6106f4838361106d565b505050565b610701610f98565b73ffffffffffffffffffffffffffffffffffffffff168173ffffffffffffffffffffffffffffffffffffffff161461076e576040517f08c379a000000000000000000000000000000000000000000000000000000000815260040161076590612503565b60405180910390fd5b610778828261114e565b5050565b6040517f08c379a00000000000000000000000000000000000000000000000000000000081526004016107ae90612471565b60405180910390fd5b60011515600860003373ffffffffffffffffffffffffffffffffffffffff1673ffffffffffffffffffffffffffffffffffffffff16815260200190815260200160002060009054906101000a900460ff1615151461084a576040517f08c379a00000000000000000000000000000000000000000000000000000000081526004016108419061256f565b60405180910390fd5b61085333611230565b565b6000806002600084815260200190815260200160002060009054906101000a900473ffffffffffffffffffffffffffffffffffffffff169050600073ffffffffffffffffffffffffffffffffffffffff168173ffffffffffffffffffffffffffffffffffffffff16036108fd576040517f08c379a00000000000000000000000000000000000000000000000000000000081526004016108f4906125db565b60405180910390fd5b80915050919050565b60008073ffffffffffffffffffffffffffffffffffffffff168273ffffffffffffffffffffffffffffffffffffffff1603610976576040517f08c379a000000000000000000000000000000000000000000000000000000000815260040161096d9061266d565b60405180910390fd5b600360008373ffffffffffffffffffffffffffffffffffffffff1673ffffffffffffffffffffffffffffffffffffffff168152602001908152602001600020549050919050565b7f114e74f6ea3bd819998f78687bfcb11b140da08e9b7d222fa9c1f1ba1f2aa1226109e781611059565b6001600860008473ffffffffffffffffffffffffffffffffffffffff1673ffffffffffffffffffffffffffffffffffffffff16815260200190815260200160002060006101000a81548160ff0219169083151502179055505050565b7f114e74f6ea3bd819998f78687bfcb11b140da08e9b7d222fa9c1f1ba1f2aa12281565b600b60009054906101000a900473ffffffffffffffffffffffffffffffffffffffff1673ffffffffffffffffffffffffffffffffffffffff166389b745ce83836040518363ffffffff1660e01b8152600401610ac492919061269c565b6020604051808303816000875af1158015610ae3573d6000803e3d6000fd5b505050506040513d601f19601f82011682018060405250810190610b0791906126da565b610b46576040517f08c379a0000000000000000000000000000000000000000000000000000000008152600401610b3d90612779565b60405180910390fd5b610b4f82611230565b5050565b60006006600084815260200190815260200160002060000160008373ffffffffffffffffffffffffffffffffffffffff1673ffffffffffffffffffffffffffffffffffffffff16815260200190815260200160002060009054906101000a900460ff16905092915050565b606060018054610bcd906122aa565b80601f0160208091040260200160405190810160405280929190818152602001828054610bf9906122aa565b8015610c465780601f10610c1b57610100808354040283529160200191610c46565b820191906000526020600020905b815481529060010190602001808311610c2957829003601f168201915b5050505050905090565b6000801b81565b610c69610c62610f98565b8383611253565b5050565b6040517f08c379a0000000000000000000000000000000000000000000000000000000008152600401610c9f90612471565b60405180910390fd5b6060600a8054610cb7906122aa565b80601f0160208091040260200160405190810160405280929190818152602001828054610ce3906122aa565b8015610d305780601f10610d0557610100808354040283529160200191610d30565b820191906000526020600020905b815481529060010190602001808311610d1357829003601f168201915b50505050509050919050565b610d45826106b8565b610d4e81611059565b610d58838361114e565b505050565b6000600560008473ffffffffffffffffffffffffffffffffffffffff1673ffffffffffffffffffffffffffffffffffffffff16815260200190815260200160002060008373ffffffffffffffffffffffffffffffffffffffff1673ffffffffffffffffffffffffffffffffffffffff16815260200190815260200160002060009054906101000a900460ff16905092915050565b60007f80ac58cd000000000000000000000000000000000000000000000000000000007bffffffffffffffffffffffffffffffffffffffffffffffffffffffff1916827bffffffffffffffffffffffffffffffffffffffffffffffffffffffff19161480610ebc57507f5b5e139f000000000000000000000000000000000000000000000000000000007bffffffffffffffffffffffffffffffffffffffffffffffffffffffff1916827bffffffffffffffffffffffffffffffffffffffffffffffffffffffff1916145b80610ecc5750610ecb826113bf565b5b9050919050565b60007f7965db0b000000000000000000000000000000000000000000000000000000007bffffffffffffffffffffffffffffffffffffffffffffffffffffffff1916827bffffffffffffffffffffffffffffffffffffffffffffffffffffffff19161480610f465750610f4582610df1565b5b9050919050565b610f5681611429565b610f95576040517f08c379a0000000000000000000000000000000000000000000000000000000008152600401610f8c906125db565b60405180910390fd5b50565b600033905090565b816004600083815260200190815260200160002060006101000a81548173ffffffffffffffffffffffffffffffffffffffff021916908373ffffffffffffffffffffffffffffffffffffffff160217905550808273ffffffffffffffffffffffffffffffffffffffff1661101383610855565b73ffffffffffffffffffffffffffffffffffffffff167f8c5be1e5ebec7d5bd14f71427d1e84f3dd0314c0f7b2291e5b200ac8c7c3b92560405160405180910390a45050565b61106a81611065610f98565b611495565b50565b6110778282610b53565b61114a5760016006600084815260200190815260200160002060000160008373ffffffffffffffffffffffffffffffffffffffff1673ffffffffffffffffffffffffffffffffffffffff16815260200190815260200160002060006101000a81548160ff0219169083151502179055506110ef610f98565b73ffffffffffffffffffffffffffffffffffffffff168173ffffffffffffffffffffffffffffffffffffffff16837f2f8788117e7eff1d82e926ec794901d17c78024a50270940304540a733656f0d60405160405180910390a45b5050565b6111588282610b53565b1561122c5760006006600084815260200190815260200160002060000160008373ffffffffffffffffffffffffffffffffffffffff1673ffffffffffffffffffffffffffffffffffffffff16815260200190815260200160002060006101000a81548160ff0219169083151502179055506111d1610f98565b73ffffffffffffffffffffffffffffffffffffffff168173ffffffffffffffffffffffffffffffffffffffff16837ff6391f5c32d9c69d2a47ea670b442974b53935d1edc7fd64eb21e047a839171b60405160405180910390a45b5050565b6112508160076000815480929190611247906127c8565b91905055611532565b50565b8173ffffffffffffffffffffffffffffffffffffffff168373ffffffffffffffffffffffffffffffffffffffff16036112c1576040517f08c379a00000000000000000000000000000000000000000000000000000000081526004016112b89061285c565b60405180910390fd5b80600560008573ffffffffffffffffffffffffffffffffffffffff1673ffffffffffffffffffffffffffffffffffffffff16815260200190815260200160002060008473ffffffffffffffffffffffffffffffffffffffff1673ffffffffffffffffffffffffffffffffffffffff16815260200190815260200160002060006101000a81548160ff0219169083151502179055508173ffffffffffffffffffffffffffffffffffffffff168373ffffffffffffffffffffffffffffffffffffffff167f17307eab39ab6107e8899845ad3d59bd9653f200f220920489ca2b5937696c31836040516113b29190611c28565b60405180910390a3505050565b60007f01ffc9a7000000000000000000000000000000000000000000000000000000007bffffffffffffffffffffffffffffffffffffffffffffffffffffffff1916827bffffffffffffffffffffffffffffffffffffffffffffffffffffffff1916149050919050565b60008073ffffffffffffffffffffffffffffffffffffffff166002600084815260200190815260200160002060009054906101000a900473ffffffffffffffffffffffffffffffffffffffff1673ffffffffffffffffffffffffffffffffffffffff1614159050919050565b61149f8282610b53565b61152e576114c48173ffffffffffffffffffffffffffffffffffffffff166014611550565b6114d28360001c6020611550565b6040516020016114e3929190612950565b6040516020818303038152906040526040517f08c379a00000000000000000000000000000000000000000000000000000000081526004016115259190611cd3565b60405180910390fd5b5050565b61154c82826040518060200160405280600081525061178c565b5050565b606060006002836002611563919061298a565b61156d91906129cc565b67ffffffffffffffff8111156115865761158561208d565b5b6040519080825280601f01601f1916602001820160405280156115b85781602001600182028036833780820191505090505b5090507f3000000000000000000000000000000000000000000000000000000000000000816000815181106115f0576115ef612a00565b5b60200101907effffffffffffffffffffffffffffffffffffffffffffffffffffffffffffff1916908160001a9053507f78000000000000000000000000000000000000000000000000000000000000008160018151811061165457611653612a00565b5b60200101907effffffffffffffffffffffffffffffffffffffffffffffffffffffffffffff1916908160001a90535060006001846002611694919061298a565b61169e91906129cc565b90505b600181111561173e577f3031323334353637383961626364656600000000000000000000000000000000600f8616601081106116e0576116df612a00565b5b1a60f81b8282815181106116f7576116f6612a00565b5b60200101907effffffffffffffffffffffffffffffffffffffffffffffffffffffffffffff1916908160001a905350600485901c94508061173790612a2f565b90506116a1565b5060008414611782576040517f08c379a000000000000000000000000000000000000000000000000000000000815260040161177990612aa4565b60405180910390fd5b8091505092915050565b61179683836117e7565b6117a360008484846119c0565b6117e2576040517f08c379a00000000000000000000000000000000000000000000000000000000081526004016117d990612b36565b60405180910390fd5b505050565b600073ffffffffffffffffffffffffffffffffffffffff168273ffffffffffffffffffffffffffffffffffffffff1603611856576040517f08c379a000000000000000000000000000000000000000000000000000000000815260040161184d90612ba2565b60405180910390fd5b61185f81611429565b1561189f576040517f08c379a000000000000000000000000000000000000000000000000000000000815260040161189690612c0e565b60405180910390fd5b6118ab60008383611b47565b6001600360008473ffffffffffffffffffffffffffffffffffffffff1673ffffffffffffffffffffffffffffffffffffffff16815260200190815260200160002060008282546118fb91906129cc565b92505081905550816002600083815260200190815260200160002060006101000a81548173ffffffffffffffffffffffffffffffffffffffff021916908373ffffffffffffffffffffffffffffffffffffffff160217905550808273ffffffffffffffffffffffffffffffffffffffff16600073ffffffffffffffffffffffffffffffffffffffff167fddf252ad1be2c89b69c2b068fc378daa952ba7f163c4a11628f55a4df523b3ef60405160405180910390a46119bc60008383611b4c565b5050565b60006119e18473ffffffffffffffffffffffffffffffffffffffff16611b51565b15611b3a578373ffffffffffffffffffffffffffffffffffffffff1663150b7a02611a0a610f98565b8786866040518563ffffffff1660e01b8152600401611a2c9493929190612c83565b6020604051808303816000875af1925050508015611a6857506040513d601f19601f82011682018060405250810190611a659190612ce4565b60015b611aea573d8060008114611a98576040519150601f19603f3d011682016040523d82523d6000602084013e611a9d565b606091505b506000815103611ae2576040517f08c379a0000000000000000000000000000000000000000000000000000000008152600401611ad990612b36565b60405180910390fd5b805181602001fd5b63150b7a0260e01b7bffffffffffffffffffffffffffffffffffffffffffffffffffffffff1916817bffffffffffffffffffffffffffffffffffffffffffffffffffffffff191614915050611b3f565b600190505b949350505050565b505050565b505050565b6000808273ffffffffffffffffffffffffffffffffffffffff163b119050919050565b6000604051905090565b600080fd5b600080fd5b60007fffffffff0000000000000000000000000000000000000000000000000000000082169050919050565b611bbd81611b88565b8114611bc857600080fd5b50565b600081359050611bda81611bb4565b92915050565b600060208284031215611bf657611bf5611b7e565b5b6000611c0484828501611bcb565b91505092915050565b60008115159050919050565b611c2281611c0d565b82525050565b6000602082019050611c3d6000830184611c19565b92915050565b600081519050919050565b600082825260208201905092915050565b60005b83811015611c7d578082015181840152602081019050611c62565b60008484015250505050565b6000601f19601f8301169050919050565b6000611ca582611c43565b611caf8185611c4e565b9350611cbf818560208601611c5f565b611cc881611c89565b840191505092915050565b60006020820190508181036000830152611ced8184611c9a565b905092915050565b6000819050919050565b611d0881611cf5565b8114611d1357600080fd5b50565b600081359050611d2581611cff565b92915050565b600060208284031215611d4157611d40611b7e565b5b6000611d4f84828501611d16565b91505092915050565b600073ffffffffffffffffffffffffffffffffffffffff82169050919050565b6000611d8382611d58565b9050919050565b611d9381611d78565b82525050565b6000602082019050611dae6000830184611d8a565b92915050565b611dbd81611d78565b8114611dc857600080fd5b50565b600081359050611dda81611db4565b92915050565b60008060408385031215611df757611df6611b7e565b5b6000611e0585828601611dcb565b9250506020611e1685828601611d16565b9150509250929050565b600080600060608486031215611e3957611e38611b7e565b5b6000611e4786828701611dcb565b9350506020611e5886828701611dcb565b9250506040611e6986828701611d16565b9150509250925092565b6000819050919050565b611e8681611e73565b8114611e9157600080fd5b50565b600081359050611ea381611e7d565b92915050565b600060208284031215611ebf57611ebe611b7e565b5b6000611ecd84828501611e94565b91505092915050565b611edf81611e73565b82525050565b6000602082019050611efa6000830184611ed6565b92915050565b60008060408385031215611f1757611f16611b7e565b5b6000611f2585828601611e94565b9250506020611f3685828601611dcb565b9150509250929050565b600060208284031215611f5657611f55611b7e565b5b6000611f6484828501611dcb565b91505092915050565b611f7681611cf5565b82525050565b6000602082019050611f916000830184611f6d565b92915050565b600067ffffffffffffffff82169050919050565b611fb481611f97565b8114611fbf57600080fd5b50565b600081359050611fd181611fab565b92915050565b60008060408385031215611fee57611fed611b7e565b5b6000611ffc85828601611dcb565b925050602061200d85828601611fc2565b9150509250929050565b61202081611c0d565b811461202b57600080fd5b50565b60008135905061203d81612017565b92915050565b6000806040838503121561205a57612059611b7e565b5b600061206885828601611dcb565b92505060206120798582860161202e565b9150509250929050565b600080fd5b600080fd5b7f4e487b7100000000000000000000000000000000000000000000000000000000600052604160045260246000fd5b6120c582611c89565b810181811067ffffffffffffffff821117156120e4576120e361208d565b5b80604052505050565b60006120f7611b74565b905061210382826120bc565b919050565b600067ffffffffffffffff8211156121235761212261208d565b5b61212c82611c89565b9050602081019050919050565b82818337600083830152505050565b600061215b61215684612108565b6120ed565b90508281526020810184848401111561217757612176612088565b5b612182848285612139565b509392505050565b600082601f83011261219f5761219e612083565b5b81356121af848260208601612148565b91505092915050565b600080600080608085870312156121d2576121d1611b7e565b5b60006121e087828801611dcb565b94505060206121f187828801611dcb565b935050604061220287828801611d16565b925050606085013567ffffffffffffffff81111561222357612222611b83565b5b61222f8782880161218a565b91505092959194509250565b6000806040838503121561225257612251611b7e565b5b600061226085828601611dcb565b925050602061227185828601611dcb565b9150509250929050565b7f4e487b7100000000000000000000000000000000000000000000000000000000600052602260045260246000fd5b600060028204905060018216806122c257607f821691505b6020821081036122d5576122d461227b565b5b50919050565b7f4552433732313a20617070726f76616c20746f2063757272656e74206f776e6560008201527f7200000000000000000000000000000000000000000000000000000000000000602082015250565b6000612337602183611c4e565b9150612342826122db565b604082019050919050565b600060208201905081810360008301526123668161232a565b9050919050565b7f4552433732313a20617070726f76652063616c6c6572206973206e6f7420746f60008201527f6b656e206f776e6572206e6f7220617070726f76656420666f7220616c6c0000602082015250565b60006123c9603e83611c4e565b91506123d48261236d565b604082019050919050565b600060208201905081810360008301526123f8816123bc565b9050919050565b7f4552524f523a20536f756c626f756e6420746f6b656e732063616e6e6f74206260008201527f65207472616e736665727265642e000000000000000000000000000000000000602082015250565b600061245b602e83611c4e565b9150612466826123ff565b604082019050919050565b6000602082019050818103600083015261248a8161244e565b9050919050565b7f416363657373436f6e74726f6c3a2063616e206f6e6c792072656e6f756e636560008201527f20726f6c657320666f722073656c660000000000000000000000000000000000602082015250565b60006124ed602f83611c4e565b91506124f882612491565b604082019050919050565b6000602082019050818103600083015261251c816124e0565b9050919050565b7f4552524f523a204e6f20697373756520746f20636c61696d2e00000000000000600082015250565b6000612559601983611c4e565b915061256482612523565b602082019050919050565b600060208201905081810360008301526125888161254c565b9050919050565b7f4552433732313a20696e76616c696420746f6b656e2049440000000000000000600082015250565b60006125c5601883611c4e565b91506125d08261258f565b602082019050919050565b600060208201905081810360008301526125f4816125b8565b9050919050565b7f4552433732313a2061646472657373207a65726f206973206e6f74206120766160008201527f6c6964206f776e65720000000000000000000000000000000000000000000000602082015250565b6000612657602983611c4e565b9150612662826125fb565b604082019050919050565b600060208201905081810360008301526126868161264a565b9050919050565b61269681611f97565b82525050565b60006040820190506126b16000830185611d8a565b6126be602083018461268d565b9392505050565b6000815190506126d481612017565b92915050565b6000602082840312156126f0576126ef611b7e565b5b60006126fe848285016126c5565b91505092915050565b7f4572726f723a20526563656976657220646f6573206e6f74206465736572766560008201527f20746869732064656d657269742e000000000000000000000000000000000000602082015250565b6000612763602e83611c4e565b915061276e82612707565b604082019050919050565b6000602082019050818103600083015261279281612756565b9050919050565b7f4e487b7100000000000000000000000000000000000000000000000000000000600052601160045260246000fd5b60006127d382611cf5565b91507fffffffffffffffffffffffffffffffffffffffffffffffffffffffffffffffff820361280557612804612799565b5b600182019050919050565b7f4552433732313a20617070726f766520746f2063616c6c657200000000000000600082015250565b6000612846601983611c4e565b915061285182612810565b602082019050919050565b6000602082019050818103600083015261287581612839565b9050919050565b600081905092915050565b7f416363657373436f6e74726f6c3a206163636f756e7420000000000000000000600082015250565b60006128bd60178361287c565b91506128c882612887565b601782019050919050565b60006128de82611c43565b6128e8818561287c565b93506128f8818560208601611c5f565b80840191505092915050565b7f206973206d697373696e6720726f6c6520000000000000000000000000000000600082015250565b600061293a60118361287c565b915061294582612904565b601182019050919050565b600061295b826128b0565b915061296782856128d3565b91506129728261292d565b915061297e82846128d3565b91508190509392505050565b600061299582611cf5565b91506129a083611cf5565b92508282026129ae81611cf5565b915082820484148315176129c5576129c4612799565b5b5092915050565b60006129d782611cf5565b91506129e283611cf5565b92508282019050808211156129fa576129f9612799565b5b92915050565b7f4e487b7100000000000000000000000000000000000000000000000000000000600052603260045260246000fd5b6000612a3a82611cf5565b915060008203612a4d57612a4c612799565b5b600182039050919050565b7f537472696e67733a20686578206c656e67746820696e73756666696369656e74600082015250565b6000612a8e602083611c4e565b9150612a9982612a58565b602082019050919050565b60006020820190508181036000830152612abd81612a81565b9050919050565b7f4552433732313a207472616e7366657220746f206e6f6e20455243373231526560008201527f63656976657220696d706c656d656e7465720000000000000000000000000000602082015250565b6000612b20603283611c4e565b9150612b2b82612ac4565b604082019050919050565b60006020820190508181036000830152612b4f81612b13565b9050919050565b7f4552433732313a206d696e7420746f20746865207a65726f2061646472657373600082015250565b6000612b8c602083611c4e565b9150612b9782612b56565b602082019050919050565b60006020820190508181036000830152612bbb81612b7f565b9050919050565b7f4552433732313a20746f6b656e20616c7265616479206d696e74656400000000600082015250565b6000612bf8601c83611c4e565b9150612c0382612bc2565b602082019050919050565b60006020820190508181036000830152612c2781612beb565b9050919050565b600081519050919050565b600082825260208201905092915050565b6000612c5582612c2e565b612c5f8185612c39565b9350612c6f818560208601611c5f565b612c7881611c89565b840191505092915050565b6000608082019050612c986000830187611d8a565b612ca56020830186611d8a565b612cb26040830185611f6d565b8181036060830152612cc48184612c4a565b905095945050505050565b600081519050612cde81611bb4565b92915050565b600060208284031215612cfa57612cf9611b7e565b5b6000612d0884828501612ccf565b9150509291505056fea2646970667358221220e4efbd9d6960ffe36ef2f3e1a07e6f73f7200460f69109e7b620d7c5c74fded064736f6c63430008110033",
    "linkReferences": {},
    "deployedLinkReferences": {}
}