{
  "_format": "hh-sol-artifact-1",
  "contractName": "OpenFactory",
  "sourceName": "contracts/erc721Factory/OpenFactory.sol",
  "abi": [
    {
      "inputs": [
        {
          "internalType": "string",
          "name": "name",
          "type": "string"
        },
        {
          "internalType": "string",
          "name": "symbol",
          "type": "string"
        },
        {
          "internalType": "string",
          "name": "uri",
          "type": "string"
        }
      ],
      "name": "createCollection",
      "outputs": [
        {
          "internalType": "address",
          "name": "",
          "type": "address"
        }
      ],
      "stateMutability": "nonpayable",
      "type": "function"
    }
  ],
  "bytecode": "0x608060405234801561001057600080fd5b506139c8806100206000396000f3fe60806040523480156200001157600080fd5b50600436106200002e5760003560e01c8063ece86c211462000033575b600080fd5b6200005160048036038101906200004b91906200036a565b62000069565b60405162000060919062000468565b60405180910390f35b60006200007c8484846000801b62000085565b90509392505050565b60008073ffffffffffffffffffffffffffffffffffffffff16600086604051620000b09190620004fe565b908152602001604051809103902060009054906101000a900473ffffffffffffffffffffffffffffffffffffffff1673ffffffffffffffffffffffffffffffffffffffff161462000138576040517f08c379a00000000000000000000000000000000000000000000000000000000081526004016200012f906200059e565b60405180910390fd5b6000338686866040516200014c90620001e6565b6200015b949392919062000601565b604051809103906000f08015801562000178573d6000803e3d6000fd5b509050806000876040516200018e9190620004fe565b908152602001604051809103902060006101000a81548173ffffffffffffffffffffffffffffffffffffffff021916908373ffffffffffffffffffffffffffffffffffffffff16021790555080915050949350505050565b61332f806200066483390190565b6000604051905090565b600080fd5b600080fd5b600080fd5b600080fd5b6000601f19601f8301169050919050565b7f4e487b7100000000000000000000000000000000000000000000000000000000600052604160045260246000fd5b6200025d8262000212565b810181811067ffffffffffffffff821117156200027f576200027e62000223565b5b80604052505050565b600062000294620001f4565b9050620002a2828262000252565b919050565b600067ffffffffffffffff821115620002c557620002c462000223565b5b620002d08262000212565b9050602081019050919050565b82818337600083830152505050565b600062000303620002fd84620002a7565b62000288565b9050828152602081018484840111156200032257620003216200020d565b5b6200032f848285620002dd565b509392505050565b600082601f8301126200034f576200034e62000208565b5b813562000361848260208601620002ec565b91505092915050565b600080600060608486031215620003865762000385620001fe565b5b600084013567ffffffffffffffff811115620003a757620003a662000203565b5b620003b58682870162000337565b935050602084013567ffffffffffffffff811115620003d957620003d862000203565b5b620003e78682870162000337565b925050604084013567ffffffffffffffff8111156200040b576200040a62000203565b5b620004198682870162000337565b9150509250925092565b600073ffffffffffffffffffffffffffffffffffffffff82169050919050565b6000620004508262000423565b9050919050565b620004628162000443565b82525050565b60006020820190506200047f600083018462000457565b92915050565b600081519050919050565b600081905092915050565b60005b83811015620004bb5780820151818401526020810190506200049e565b60008484015250505050565b6000620004d48262000485565b620004e0818562000490565b9350620004f28185602086016200049b565b80840191505092915050565b60006200050c8284620004c7565b915081905092915050565b600082825260208201905092915050565b7f4572726f723a204120666163746f72792068617320616c72656164792062656560008201527f6e207265676973746572656420746f206e616d652e0000000000000000000000602082015250565b60006200058660358362000517565b9150620005938262000528565b604082019050919050565b60006020820190508181036000830152620005b98162000577565b9050919050565b6000620005cd8262000485565b620005d9818562000517565b9350620005eb8185602086016200049b565b620005f68162000212565b840191505092915050565b600060808201905062000618600083018762000457565b81810360208301526200062c8186620005c0565b90508181036040830152620006428185620005c0565b90508181036060830152620006588184620005c0565b90509594505050505056fe60806040523480156200001157600080fd5b506040516200332f3803806200332f833981810160405281019062000037919062000476565b828281600090816200004a919062000790565b5080600190816200005c919062000790565b505050620000746000801b856200010360201b60201c565b620000a67f114e74f6ea3bd819998f78687bfcb11b140da08e9b7d222fa9c1f1ba1f2aa122856200010360201b60201c565b83600960006101000a81548173ffffffffffffffffffffffffffffffffffffffff021916908373ffffffffffffffffffffffffffffffffffffffff16021790555080600a9081620000f8919062000790565b505050505062000877565b6200011582826200011960201b60201c565b5050565b6200012b82826200020b60201b60201c565b620002075760016006600084815260200190815260200160002060000160008373ffffffffffffffffffffffffffffffffffffffff1673ffffffffffffffffffffffffffffffffffffffff16815260200190815260200160002060006101000a81548160ff021916908315150217905550620001ac6200027660201b60201c565b73ffffffffffffffffffffffffffffffffffffffff168173ffffffffffffffffffffffffffffffffffffffff16837f2f8788117e7eff1d82e926ec794901d17c78024a50270940304540a733656f0d60405160405180910390a45b5050565b60006006600084815260200190815260200160002060000160008373ffffffffffffffffffffffffffffffffffffffff1673ffffffffffffffffffffffffffffffffffffffff16815260200190815260200160002060009054906101000a900460ff16905092915050565b600033905090565b6000604051905090565b600080fd5b600080fd5b600073ffffffffffffffffffffffffffffffffffffffff82169050919050565b6000620002bf8262000292565b9050919050565b620002d181620002b2565b8114620002dd57600080fd5b50565b600081519050620002f181620002c6565b92915050565b600080fd5b600080fd5b6000601f19601f8301169050919050565b7f4e487b7100000000000000000000000000000000000000000000000000000000600052604160045260246000fd5b6200034c8262000301565b810181811067ffffffffffffffff821117156200036e576200036d62000312565b5b80604052505050565b6000620003836200027e565b905062000391828262000341565b919050565b600067ffffffffffffffff821115620003b457620003b362000312565b5b620003bf8262000301565b9050602081019050919050565b60005b83811015620003ec578082015181840152602081019050620003cf565b60008484015250505050565b60006200040f620004098462000396565b62000377565b9050828152602081018484840111156200042e576200042d620002fc565b5b6200043b848285620003cc565b509392505050565b600082601f8301126200045b576200045a620002f7565b5b81516200046d848260208601620003f8565b91505092915050565b6000806000806080858703121562000493576200049262000288565b5b6000620004a387828801620002e0565b945050602085015167ffffffffffffffff811115620004c757620004c66200028d565b5b620004d58782880162000443565b935050604085015167ffffffffffffffff811115620004f957620004f86200028d565b5b620005078782880162000443565b925050606085015167ffffffffffffffff8111156200052b576200052a6200028d565b5b620005398782880162000443565b91505092959194509250565b600081519050919050565b7f4e487b7100000000000000000000000000000000000000000000000000000000600052602260045260246000fd5b600060028204905060018216806200059857607f821691505b602082108103620005ae57620005ad62000550565b5b50919050565b60008190508160005260206000209050919050565b60006020601f8301049050919050565b600082821b905092915050565b600060088302620006187fffffffffffffffffffffffffffffffffffffffffffffffffffffffffffffffff82620005d9565b620006248683620005d9565b95508019841693508086168417925050509392505050565b6000819050919050565b6000819050919050565b6000620006716200066b62000665846200063c565b62000646565b6200063c565b9050919050565b6000819050919050565b6200068d8362000650565b620006a56200069c8262000678565b848454620005e6565b825550505050565b600090565b620006bc620006ad565b620006c981848462000682565b505050565b5b81811015620006f157620006e5600082620006b2565b600181019050620006cf565b5050565b601f82111562000740576200070a81620005b4565b6200071584620005c9565b8101602085101562000725578190505b6200073d6200073485620005c9565b830182620006ce565b50505b505050565b600082821c905092915050565b6000620007656000198460080262000745565b1980831691505092915050565b600062000780838362000752565b9150826002028217905092915050565b6200079b8262000545565b67ffffffffffffffff811115620007b757620007b662000312565b5b620007c382546200057f565b620007d0828285620006f5565b600060209050601f831160018114620008085760008415620007f3578287015190505b620007ff858262000772565b8655506200086f565b601f1984166200081886620005b4565b60005b8281101562000842578489015182556001820191506020850194506020810190506200081b565b868310156200086257848901516200085e601f89168262000752565b8355505b6001600288020188555050505b505050505050565b612aa880620008876000396000f3fe608060405234801561001057600080fd5b50600436106101425760003560e01c806370a08231116100b8578063a217fddf1161007c578063a217fddf14610373578063a22cb46514610391578063b88d4fde146103ad578063c87b56dd146103c9578063d547741f146103f9578063e985e9c51461041557610142565b806370a08231146102bb57806371e928af146102eb57806382aefa241461030757806391d148541461032557806395d89b411461035557610142565b8063248a9ca31161010a578063248a9ca3146101fd5780632f2ff15d1461022d57806336568abe1461024957806342842e0e146102655780634e71d92d146102815780636352211e1461028b57610142565b806301ffc9a71461014757806306fdde0314610177578063081812fc14610195578063095ea7b3146101c557806323b872dd146101e1575b600080fd5b610161600480360381019061015c9190611acd565b610445565b60405161016e9190611b15565b60405180910390f35b61017f610467565b60405161018c9190611bc0565b60405180910390f35b6101af60048036038101906101aa9190611c18565b6104f9565b6040516101bc9190611c86565b60405180910390f35b6101df60048036038101906101da9190611ccd565b61053f565b005b6101fb60048036038101906101f69190611d0d565b610656565b005b61021760048036038101906102129190611d96565b610691565b6040516102249190611dd2565b60405180910390f35b61024760048036038101906102429190611ded565b6106b1565b005b610263600480360381019061025e9190611ded565b6106d2565b005b61027f600480360381019061027a9190611d0d565b610755565b005b610289610790565b005b6102a560048036038101906102a09190611c18565b61082e565b6040516102b29190611c86565b60405180910390f35b6102d560048036038101906102d09190611e2d565b6108df565b6040516102e29190611e69565b60405180910390f35b61030560048036038101906103009190611e2d565b610996565b005b61030f610a1c565b60405161031c9190611dd2565b60405180910390f35b61033f600480360381019061033a9190611ded565b610a40565b60405161034c9190611b15565b60405180910390f35b61035d610aab565b60405161036a9190611bc0565b60405180910390f35b61037b610b3d565b6040516103889190611dd2565b60405180910390f35b6103ab60048036038101906103a69190611eb0565b610b44565b005b6103c760048036038101906103c29190612025565b610b5a565b005b6103e360048036038101906103de9190611c18565b610b95565b6040516103f09190611bc0565b60405180910390f35b610413600480360381019061040e9190611ded565b610c29565b005b61042f600480360381019061042a91906120a8565b610c4a565b60405161043c9190611b15565b60405180910390f35b600061045082610cde565b80610460575061045f82610dc0565b5b9050919050565b60606000805461047690612117565b80601f01602080910402602001604051908101604052809291908181526020018280546104a290612117565b80156104ef5780601f106104c4576101008083540402835291602001916104ef565b820191906000526020600020905b8154815290600101906020018083116104d257829003601f168201915b5050505050905090565b600061050482610e3a565b6004600083815260200190815260200160002060009054906101000a900473ffffffffffffffffffffffffffffffffffffffff169050919050565b600061054a8261082e565b90508073ffffffffffffffffffffffffffffffffffffffff168373ffffffffffffffffffffffffffffffffffffffff16036105ba576040517f08c379a00000000000000000000000000000000000000000000000000000000081526004016105b1906121ba565b60405180910390fd5b8073ffffffffffffffffffffffffffffffffffffffff166105d9610e85565b73ffffffffffffffffffffffffffffffffffffffff161480610608575061060781610602610e85565b610c4a565b5b610647576040517f08c379a000000000000000000000000000000000000000000000000000000000815260040161063e9061224c565b60405180910390fd5b6106518383610e8d565b505050565b6040517f08c379a0000000000000000000000000000000000000000000000000000000008152600401610688906122de565b60405180910390fd5b600060066000838152602001908152602001600020600101549050919050565b6106ba82610691565b6106c381610f46565b6106cd8383610f5a565b505050565b6106da610e85565b73ffffffffffffffffffffffffffffffffffffffff168173ffffffffffffffffffffffffffffffffffffffff1614610747576040517f08c379a000000000000000000000000000000000000000000000000000000000815260040161073e90612370565b60405180910390fd5b610751828261103b565b5050565b6040517f08c379a0000000000000000000000000000000000000000000000000000000008152600401610787906122de565b60405180910390fd5b60011515600860003373ffffffffffffffffffffffffffffffffffffffff1673ffffffffffffffffffffffffffffffffffffffff16815260200190815260200160002060009054906101000a900460ff16151514610823576040517f08c379a000000000000000000000000000000000000000000000000000000000815260040161081a906123dc565b60405180910390fd5b61082c3361111d565b565b6000806002600084815260200190815260200160002060009054906101000a900473ffffffffffffffffffffffffffffffffffffffff169050600073ffffffffffffffffffffffffffffffffffffffff168173ffffffffffffffffffffffffffffffffffffffff16036108d6576040517f08c379a00000000000000000000000000000000000000000000000000000000081526004016108cd90612448565b60405180910390fd5b80915050919050565b60008073ffffffffffffffffffffffffffffffffffffffff168273ffffffffffffffffffffffffffffffffffffffff160361094f576040517f08c379a0000000000000000000000000000000000000000000000000000000008152600401610946906124da565b60405180910390fd5b600360008373ffffffffffffffffffffffffffffffffffffffff1673ffffffffffffffffffffffffffffffffffffffff168152602001908152602001600020549050919050565b7f114e74f6ea3bd819998f78687bfcb11b140da08e9b7d222fa9c1f1ba1f2aa1226109c081610f46565b6001600860008473ffffffffffffffffffffffffffffffffffffffff1673ffffffffffffffffffffffffffffffffffffffff16815260200190815260200160002060006101000a81548160ff0219169083151502179055505050565b7f114e74f6ea3bd819998f78687bfcb11b140da08e9b7d222fa9c1f1ba1f2aa12281565b60006006600084815260200190815260200160002060000160008373ffffffffffffffffffffffffffffffffffffffff1673ffffffffffffffffffffffffffffffffffffffff16815260200190815260200160002060009054906101000a900460ff16905092915050565b606060018054610aba90612117565b80601f0160208091040260200160405190810160405280929190818152602001828054610ae690612117565b8015610b335780601f10610b0857610100808354040283529160200191610b33565b820191906000526020600020905b815481529060010190602001808311610b1657829003601f168201915b5050505050905090565b6000801b81565b610b56610b4f610e85565b8383611140565b5050565b6040517f08c379a0000000000000000000000000000000000000000000000000000000008152600401610b8c906122de565b60405180910390fd5b6060600a8054610ba490612117565b80601f0160208091040260200160405190810160405280929190818152602001828054610bd090612117565b8015610c1d5780601f10610bf257610100808354040283529160200191610c1d565b820191906000526020600020905b815481529060010190602001808311610c0057829003601f168201915b50505050509050919050565b610c3282610691565b610c3b81610f46565b610c45838361103b565b505050565b6000600560008473ffffffffffffffffffffffffffffffffffffffff1673ffffffffffffffffffffffffffffffffffffffff16815260200190815260200160002060008373ffffffffffffffffffffffffffffffffffffffff1673ffffffffffffffffffffffffffffffffffffffff16815260200190815260200160002060009054906101000a900460ff16905092915050565b60007f80ac58cd000000000000000000000000000000000000000000000000000000007bffffffffffffffffffffffffffffffffffffffffffffffffffffffff1916827bffffffffffffffffffffffffffffffffffffffffffffffffffffffff19161480610da957507f5b5e139f000000000000000000000000000000000000000000000000000000007bffffffffffffffffffffffffffffffffffffffffffffffffffffffff1916827bffffffffffffffffffffffffffffffffffffffffffffffffffffffff1916145b80610db95750610db8826112ac565b5b9050919050565b60007f7965db0b000000000000000000000000000000000000000000000000000000007bffffffffffffffffffffffffffffffffffffffffffffffffffffffff1916827bffffffffffffffffffffffffffffffffffffffffffffffffffffffff19161480610e335750610e3282610cde565b5b9050919050565b610e4381611316565b610e82576040517f08c379a0000000000000000000000000000000000000000000000000000000008152600401610e7990612448565b60405180910390fd5b50565b600033905090565b816004600083815260200190815260200160002060006101000a81548173ffffffffffffffffffffffffffffffffffffffff021916908373ffffffffffffffffffffffffffffffffffffffff160217905550808273ffffffffffffffffffffffffffffffffffffffff16610f008361082e565b73ffffffffffffffffffffffffffffffffffffffff167f8c5be1e5ebec7d5bd14f71427d1e84f3dd0314c0f7b2291e5b200ac8c7c3b92560405160405180910390a45050565b610f5781610f52610e85565b611382565b50565b610f648282610a40565b6110375760016006600084815260200190815260200160002060000160008373ffffffffffffffffffffffffffffffffffffffff1673ffffffffffffffffffffffffffffffffffffffff16815260200190815260200160002060006101000a81548160ff021916908315150217905550610fdc610e85565b73ffffffffffffffffffffffffffffffffffffffff168173ffffffffffffffffffffffffffffffffffffffff16837f2f8788117e7eff1d82e926ec794901d17c78024a50270940304540a733656f0d60405160405180910390a45b5050565b6110458282610a40565b156111195760006006600084815260200190815260200160002060000160008373ffffffffffffffffffffffffffffffffffffffff1673ffffffffffffffffffffffffffffffffffffffff16815260200190815260200160002060006101000a81548160ff0219169083151502179055506110be610e85565b73ffffffffffffffffffffffffffffffffffffffff168173ffffffffffffffffffffffffffffffffffffffff16837ff6391f5c32d9c69d2a47ea670b442974b53935d1edc7fd64eb21e047a839171b60405160405180910390a45b5050565b61113d816007600081548092919061113490612529565b9190505561141f565b50565b8173ffffffffffffffffffffffffffffffffffffffff168373ffffffffffffffffffffffffffffffffffffffff16036111ae576040517f08c379a00000000000000000000000000000000000000000000000000000000081526004016111a5906125bd565b60405180910390fd5b80600560008573ffffffffffffffffffffffffffffffffffffffff1673ffffffffffffffffffffffffffffffffffffffff16815260200190815260200160002060008473ffffffffffffffffffffffffffffffffffffffff1673ffffffffffffffffffffffffffffffffffffffff16815260200190815260200160002060006101000a81548160ff0219169083151502179055508173ffffffffffffffffffffffffffffffffffffffff168373ffffffffffffffffffffffffffffffffffffffff167f17307eab39ab6107e8899845ad3d59bd9653f200f220920489ca2b5937696c318360405161129f9190611b15565b60405180910390a3505050565b60007f01ffc9a7000000000000000000000000000000000000000000000000000000007bffffffffffffffffffffffffffffffffffffffffffffffffffffffff1916827bffffffffffffffffffffffffffffffffffffffffffffffffffffffff1916149050919050565b60008073ffffffffffffffffffffffffffffffffffffffff166002600084815260200190815260200160002060009054906101000a900473ffffffffffffffffffffffffffffffffffffffff1673ffffffffffffffffffffffffffffffffffffffff1614159050919050565b61138c8282610a40565b61141b576113b18173ffffffffffffffffffffffffffffffffffffffff16601461143d565b6113bf8360001c602061143d565b6040516020016113d09291906126b1565b6040516020818303038152906040526040517f08c379a00000000000000000000000000000000000000000000000000000000081526004016114129190611bc0565b60405180910390fd5b5050565b611439828260405180602001604052806000815250611679565b5050565b60606000600283600261145091906126eb565b61145a919061272d565b67ffffffffffffffff81111561147357611472611efa565b5b6040519080825280601f01601f1916602001820160405280156114a55781602001600182028036833780820191505090505b5090507f3000000000000000000000000000000000000000000000000000000000000000816000815181106114dd576114dc612761565b5b60200101907effffffffffffffffffffffffffffffffffffffffffffffffffffffffffffff1916908160001a9053507f78000000000000000000000000000000000000000000000000000000000000008160018151811061154157611540612761565b5b60200101907effffffffffffffffffffffffffffffffffffffffffffffffffffffffffffff1916908160001a9053506000600184600261158191906126eb565b61158b919061272d565b90505b600181111561162b577f3031323334353637383961626364656600000000000000000000000000000000600f8616601081106115cd576115cc612761565b5b1a60f81b8282815181106115e4576115e3612761565b5b60200101907effffffffffffffffffffffffffffffffffffffffffffffffffffffffffffff1916908160001a905350600485901c94508061162490612790565b905061158e565b506000841461166f576040517f08c379a000000000000000000000000000000000000000000000000000000000815260040161166690612805565b60405180910390fd5b8091505092915050565b61168383836116d4565b61169060008484846118ad565b6116cf576040517f08c379a00000000000000000000000000000000000000000000000000000000081526004016116c690612897565b60405180910390fd5b505050565b600073ffffffffffffffffffffffffffffffffffffffff168273ffffffffffffffffffffffffffffffffffffffff1603611743576040517f08c379a000000000000000000000000000000000000000000000000000000000815260040161173a90612903565b60405180910390fd5b61174c81611316565b1561178c576040517f08c379a00000000000000000000000000000000000000000000000000000000081526004016117839061296f565b60405180910390fd5b61179860008383611a34565b6001600360008473ffffffffffffffffffffffffffffffffffffffff1673ffffffffffffffffffffffffffffffffffffffff16815260200190815260200160002060008282546117e8919061272d565b92505081905550816002600083815260200190815260200160002060006101000a81548173ffffffffffffffffffffffffffffffffffffffff021916908373ffffffffffffffffffffffffffffffffffffffff160217905550808273ffffffffffffffffffffffffffffffffffffffff16600073ffffffffffffffffffffffffffffffffffffffff167fddf252ad1be2c89b69c2b068fc378daa952ba7f163c4a11628f55a4df523b3ef60405160405180910390a46118a960008383611a39565b5050565b60006118ce8473ffffffffffffffffffffffffffffffffffffffff16611a3e565b15611a27578373ffffffffffffffffffffffffffffffffffffffff1663150b7a026118f7610e85565b8786866040518563ffffffff1660e01b815260040161191994939291906129e4565b6020604051808303816000875af192505050801561195557506040513d601f19601f820116820180604052508101906119529190612a45565b60015b6119d7573d8060008114611985576040519150601f19603f3d011682016040523d82523d6000602084013e61198a565b606091505b5060008151036119cf576040517f08c379a00000000000000000000000000000000000000000000000000000000081526004016119c690612897565b60405180910390fd5b805181602001fd5b63150b7a0260e01b7bffffffffffffffffffffffffffffffffffffffffffffffffffffffff1916817bffffffffffffffffffffffffffffffffffffffffffffffffffffffff191614915050611a2c565b600190505b949350505050565b505050565b505050565b6000808273ffffffffffffffffffffffffffffffffffffffff163b119050919050565b6000604051905090565b600080fd5b600080fd5b60007fffffffff0000000000000000000000000000000000000000000000000000000082169050919050565b611aaa81611a75565b8114611ab557600080fd5b50565b600081359050611ac781611aa1565b92915050565b600060208284031215611ae357611ae2611a6b565b5b6000611af184828501611ab8565b91505092915050565b60008115159050919050565b611b0f81611afa565b82525050565b6000602082019050611b2a6000830184611b06565b92915050565b600081519050919050565b600082825260208201905092915050565b60005b83811015611b6a578082015181840152602081019050611b4f565b60008484015250505050565b6000601f19601f8301169050919050565b6000611b9282611b30565b611b9c8185611b3b565b9350611bac818560208601611b4c565b611bb581611b76565b840191505092915050565b60006020820190508181036000830152611bda8184611b87565b905092915050565b6000819050919050565b611bf581611be2565b8114611c0057600080fd5b50565b600081359050611c1281611bec565b92915050565b600060208284031215611c2e57611c2d611a6b565b5b6000611c3c84828501611c03565b91505092915050565b600073ffffffffffffffffffffffffffffffffffffffff82169050919050565b6000611c7082611c45565b9050919050565b611c8081611c65565b82525050565b6000602082019050611c9b6000830184611c77565b92915050565b611caa81611c65565b8114611cb557600080fd5b50565b600081359050611cc781611ca1565b92915050565b60008060408385031215611ce457611ce3611a6b565b5b6000611cf285828601611cb8565b9250506020611d0385828601611c03565b9150509250929050565b600080600060608486031215611d2657611d25611a6b565b5b6000611d3486828701611cb8565b9350506020611d4586828701611cb8565b9250506040611d5686828701611c03565b9150509250925092565b6000819050919050565b611d7381611d60565b8114611d7e57600080fd5b50565b600081359050611d9081611d6a565b92915050565b600060208284031215611dac57611dab611a6b565b5b6000611dba84828501611d81565b91505092915050565b611dcc81611d60565b82525050565b6000602082019050611de76000830184611dc3565b92915050565b60008060408385031215611e0457611e03611a6b565b5b6000611e1285828601611d81565b9250506020611e2385828601611cb8565b9150509250929050565b600060208284031215611e4357611e42611a6b565b5b6000611e5184828501611cb8565b91505092915050565b611e6381611be2565b82525050565b6000602082019050611e7e6000830184611e5a565b92915050565b611e8d81611afa565b8114611e9857600080fd5b50565b600081359050611eaa81611e84565b92915050565b60008060408385031215611ec757611ec6611a6b565b5b6000611ed585828601611cb8565b9250506020611ee685828601611e9b565b9150509250929050565b600080fd5b600080fd5b7f4e487b7100000000000000000000000000000000000000000000000000000000600052604160045260246000fd5b611f3282611b76565b810181811067ffffffffffffffff82111715611f5157611f50611efa565b5b80604052505050565b6000611f64611a61565b9050611f708282611f29565b919050565b600067ffffffffffffffff821115611f9057611f8f611efa565b5b611f9982611b76565b9050602081019050919050565b82818337600083830152505050565b6000611fc8611fc384611f75565b611f5a565b905082815260208101848484011115611fe457611fe3611ef5565b5b611fef848285611fa6565b509392505050565b600082601f83011261200c5761200b611ef0565b5b813561201c848260208601611fb5565b91505092915050565b6000806000806080858703121561203f5761203e611a6b565b5b600061204d87828801611cb8565b945050602061205e87828801611cb8565b935050604061206f87828801611c03565b925050606085013567ffffffffffffffff8111156120905761208f611a70565b5b61209c87828801611ff7565b91505092959194509250565b600080604083850312156120bf576120be611a6b565b5b60006120cd85828601611cb8565b92505060206120de85828601611cb8565b9150509250929050565b7f4e487b7100000000000000000000000000000000000000000000000000000000600052602260045260246000fd5b6000600282049050600182168061212f57607f821691505b602082108103612142576121416120e8565b5b50919050565b7f4552433732313a20617070726f76616c20746f2063757272656e74206f776e6560008201527f7200000000000000000000000000000000000000000000000000000000000000602082015250565b60006121a4602183611b3b565b91506121af82612148565b604082019050919050565b600060208201905081810360008301526121d381612197565b9050919050565b7f4552433732313a20617070726f76652063616c6c6572206973206e6f7420746f60008201527f6b656e206f776e6572206e6f7220617070726f76656420666f7220616c6c0000602082015250565b6000612236603e83611b3b565b9150612241826121da565b604082019050919050565b6000602082019050818103600083015261226581612229565b9050919050565b7f4552524f523a20536f756c626f756e6420746f6b656e732063616e6e6f74206260008201527f65207472616e736665727265642e000000000000000000000000000000000000602082015250565b60006122c8602e83611b3b565b91506122d38261226c565b604082019050919050565b600060208201905081810360008301526122f7816122bb565b9050919050565b7f416363657373436f6e74726f6c3a2063616e206f6e6c792072656e6f756e636560008201527f20726f6c657320666f722073656c660000000000000000000000000000000000602082015250565b600061235a602f83611b3b565b9150612365826122fe565b604082019050919050565b600060208201905081810360008301526123898161234d565b9050919050565b7f4552524f523a204e6f20697373756520746f20636c61696d2e00000000000000600082015250565b60006123c6601983611b3b565b91506123d182612390565b602082019050919050565b600060208201905081810360008301526123f5816123b9565b9050919050565b7f4552433732313a20696e76616c696420746f6b656e2049440000000000000000600082015250565b6000612432601883611b3b565b915061243d826123fc565b602082019050919050565b6000602082019050818103600083015261246181612425565b9050919050565b7f4552433732313a2061646472657373207a65726f206973206e6f74206120766160008201527f6c6964206f776e65720000000000000000000000000000000000000000000000602082015250565b60006124c4602983611b3b565b91506124cf82612468565b604082019050919050565b600060208201905081810360008301526124f3816124b7565b9050919050565b7f4e487b7100000000000000000000000000000000000000000000000000000000600052601160045260246000fd5b600061253482611be2565b91507fffffffffffffffffffffffffffffffffffffffffffffffffffffffffffffffff8203612566576125656124fa565b5b600182019050919050565b7f4552433732313a20617070726f766520746f2063616c6c657200000000000000600082015250565b60006125a7601983611b3b565b91506125b282612571565b602082019050919050565b600060208201905081810360008301526125d68161259a565b9050919050565b600081905092915050565b7f416363657373436f6e74726f6c3a206163636f756e7420000000000000000000600082015250565b600061261e6017836125dd565b9150612629826125e8565b601782019050919050565b600061263f82611b30565b61264981856125dd565b9350612659818560208601611b4c565b80840191505092915050565b7f206973206d697373696e6720726f6c6520000000000000000000000000000000600082015250565b600061269b6011836125dd565b91506126a682612665565b601182019050919050565b60006126bc82612611565b91506126c88285612634565b91506126d38261268e565b91506126df8284612634565b91508190509392505050565b60006126f682611be2565b915061270183611be2565b925082820261270f81611be2565b91508282048414831517612726576127256124fa565b5b5092915050565b600061273882611be2565b915061274383611be2565b925082820190508082111561275b5761275a6124fa565b5b92915050565b7f4e487b7100000000000000000000000000000000000000000000000000000000600052603260045260246000fd5b600061279b82611be2565b9150600082036127ae576127ad6124fa565b5b600182039050919050565b7f537472696e67733a20686578206c656e67746820696e73756666696369656e74600082015250565b60006127ef602083611b3b565b91506127fa826127b9565b602082019050919050565b6000602082019050818103600083015261281e816127e2565b9050919050565b7f4552433732313a207472616e7366657220746f206e6f6e20455243373231526560008201527f63656976657220696d706c656d656e7465720000000000000000000000000000602082015250565b6000612881603283611b3b565b915061288c82612825565b604082019050919050565b600060208201905081810360008301526128b081612874565b9050919050565b7f4552433732313a206d696e7420746f20746865207a65726f2061646472657373600082015250565b60006128ed602083611b3b565b91506128f8826128b7565b602082019050919050565b6000602082019050818103600083015261291c816128e0565b9050919050565b7f4552433732313a20746f6b656e20616c7265616479206d696e74656400000000600082015250565b6000612959601c83611b3b565b915061296482612923565b602082019050919050565b600060208201905081810360008301526129888161294c565b9050919050565b600081519050919050565b600082825260208201905092915050565b60006129b68261298f565b6129c0818561299a565b93506129d0818560208601611b4c565b6129d981611b76565b840191505092915050565b60006080820190506129f96000830187611c77565b612a066020830186611c77565b612a136040830185611e5a565b8181036060830152612a2581846129ab565b905095945050505050565b600081519050612a3f81611aa1565b92915050565b600060208284031215612a5b57612a5a611a6b565b5b6000612a6984828501612a30565b9150509291505056fea2646970667358221220492bf61e12a9c6681944b62bbfa51b643fb8cd34388a7d9f53fba6df1a9a20a864736f6c63430008110033a2646970667358221220956c8dda0daab80e7770cc79e20e47c23ddfe4d95ee0affaae08ebf4f92ba83664736f6c63430008110033",
  "linkReferences": {},
  "deployedLinkReferences": {}
}