{
  "_format": "hh-sol-artifact-1",
  "contractName": "SoulboundEngine",
  "sourceName": "contracts/SoulboundEngine.sol",
  "abi": [
    {
      "inputs": [],
      "stateMutability": "nonpayable",
      "type": "constructor"
    },
    {
      "inputs": [
        {
          "internalType": "bytes32",
          "name": "_keccakId",
          "type": "bytes32"
        }
      ],
      "name": "getFactory",
      "outputs": [
        {
          "internalType": "address",
          "name": "",
          "type": "address"
        }
      ],
      "stateMutability": "view",
      "type": "function"
    },
    {
      "inputs": [
        {
          "internalType": "bytes32",
          "name": "_keccakId",
          "type": "bytes32"
        },
        {
          "internalType": "address",
          "name": "erc721Factory",
          "type": "address"
        }
      ],
      "name": "registerFactory",
      "outputs": [],
      "stateMutability": "nonpayable",
      "type": "function"
    }
  ],
  "bytecode": "0x608060405234801561001057600080fd5b506103c2806100206000396000f3fe608060405234801561001057600080fd5b50600436106100365760003560e01c806317fc27611461003b57806349daa9891461006b575b600080fd5b610055600480360381019061005091906101f4565b610087565b6040516100629190610262565b60405180910390f35b610085600480360381019061008091906102a9565b6100c3565b005b600080600083815260200190815260200160002060009054906101000a900473ffffffffffffffffffffffffffffffffffffffff169050919050565b600073ffffffffffffffffffffffffffffffffffffffff1660008084815260200190815260200160002060009054906101000a900473ffffffffffffffffffffffffffffffffffffffff1673ffffffffffffffffffffffffffffffffffffffff1614610164576040517f08c379a000000000000000000000000000000000000000000000000000000000815260040161015b9061036c565b60405180910390fd5b8060008084815260200190815260200160002060006101000a81548173ffffffffffffffffffffffffffffffffffffffff021916908373ffffffffffffffffffffffffffffffffffffffff1602179055505050565b600080fd5b6000819050919050565b6101d1816101be565b81146101dc57600080fd5b50565b6000813590506101ee816101c8565b92915050565b60006020828403121561020a576102096101b9565b5b6000610218848285016101df565b91505092915050565b600073ffffffffffffffffffffffffffffffffffffffff82169050919050565b600061024c82610221565b9050919050565b61025c81610241565b82525050565b60006020820190506102776000830184610253565b92915050565b61028681610241565b811461029157600080fd5b50565b6000813590506102a38161027d565b92915050565b600080604083850312156102c0576102bf6101b9565b5b60006102ce858286016101df565b92505060206102df85828601610294565b9150509250929050565b600082825260208201905092915050565b7f4572726f723a20466163746f727920616c72656164792072656769737465726560008201527f64207769746820746869732069642e0000000000000000000000000000000000602082015250565b6000610356602f836102e9565b9150610361826102fa565b604082019050919050565b6000602082019050818103600083015261038581610349565b905091905056fea26469706673582212200ef96467cfc5a61df21fec7913a6c4821fe0365b2faff626c2d276d5264ba3f364736f6c63430008110033",
  "linkReferences": {},
  "deployedLinkReferences": {}
}