{
  "_format": "hh-sol-artifact-1",
  "contractName": "SoulboundEngine",
  "sourceName": "contracts/SoulboundEngine.sol",
  "abi": [
    {
      "inputs": [
        {
          "internalType": "address",
          "name": "soulboundStorage",
          "type": "address"
        }
      ],
      "stateMutability": "nonpayable",
      "type": "constructor"
    },
    {
      "inputs": [
        {
          "internalType": "uint256",
          "name": "",
          "type": "uint256"
        }
      ],
      "name": "_ids",
      "outputs": [
        {
          "internalType": "bytes32",
          "name": "",
          "type": "bytes32"
        }
      ],
      "stateMutability": "view",
      "type": "function"
    },
    {
      "inputs": [
        {
          "internalType": "bytes32",
          "name": "_keccakId",
          "type": "bytes32"
        }
      ],
      "name": "getFactory",
      "outputs": [
        {
          "internalType": "address",
          "name": "",
          "type": "address"
        }
      ],
      "stateMutability": "view",
      "type": "function"
    },
    {
      "inputs": [],
      "name": "getStorageAddress",
      "outputs": [
        {
          "internalType": "address",
          "name": "",
          "type": "address"
        }
      ],
      "stateMutability": "view",
      "type": "function"
    },
    {
      "inputs": [
        {
          "internalType": "bytes32",
          "name": "_keccakId",
          "type": "bytes32"
        },
        {
          "internalType": "address",
          "name": "erc721Factory",
          "type": "address"
        }
      ],
      "name": "registerFactory",
      "outputs": [],
      "stateMutability": "nonpayable",
      "type": "function"
    }
  ],
  "bytecode": "0x608060405234801561001057600080fd5b506040516106cf3803806106cf833981810160405281019061003291906100dc565b80600260006101000a81548173ffffffffffffffffffffffffffffffffffffffff021916908373ffffffffffffffffffffffffffffffffffffffff16021790555050610109565b600080fd5b600073ffffffffffffffffffffffffffffffffffffffff82169050919050565b60006100a98261007e565b9050919050565b6100b98161009e565b81146100c457600080fd5b50565b6000815190506100d6816100b0565b92915050565b6000602082840312156100f2576100f1610079565b5b6000610100848285016100c7565b91505092915050565b6105b7806101186000396000f3fe608060405234801561001057600080fd5b506004361061004c5760003560e01c806317fc276114610051578063393a4d341461008157806349daa9891461009f578063ec04c287146100bb575b600080fd5b61006b6004803603810190610066919061035c565b6100eb565b60405161007891906103ca565b60405180910390f35b610089610127565b60405161009691906103ca565b60405180910390f35b6100b960048036038101906100b49190610411565b610151565b005b6100d560048036038101906100d09190610487565b6102fd565b6040516100e291906104c3565b60405180910390f35b600080600083815260200190815260200160002060009054906101000a900473ffffffffffffffffffffffffffffffffffffffff169050919050565b6000600260009054906101000a900473ffffffffffffffffffffffffffffffffffffffff16905090565b600073ffffffffffffffffffffffffffffffffffffffff1660008084815260200190815260200160002060009054906101000a900473ffffffffffffffffffffffffffffffffffffffff1673ffffffffffffffffffffffffffffffffffffffff16146101f2576040517f08c379a00000000000000000000000000000000000000000000000000000000081526004016101e990610561565b60405180910390fd5b8060008084815260200190815260200160002060006101000a81548173ffffffffffffffffffffffffffffffffffffffff021916908373ffffffffffffffffffffffffffffffffffffffff1602179055506001829080600181540180825580915050600190039060005260206000200160009091909190915055600260009054906101000a900473ffffffffffffffffffffffffffffffffffffffff1673ffffffffffffffffffffffffffffffffffffffff1663783ff1f1826040518263ffffffff1660e01b81526004016102c791906103ca565b600060405180830381600087803b1580156102e157600080fd5b505af11580156102f5573d6000803e3d6000fd5b505050505050565b6001818154811061030d57600080fd5b906000526020600020016000915090505481565b600080fd5b6000819050919050565b61033981610326565b811461034457600080fd5b50565b60008135905061035681610330565b92915050565b60006020828403121561037257610371610321565b5b600061038084828501610347565b91505092915050565b600073ffffffffffffffffffffffffffffffffffffffff82169050919050565b60006103b482610389565b9050919050565b6103c4816103a9565b82525050565b60006020820190506103df60008301846103bb565b92915050565b6103ee816103a9565b81146103f957600080fd5b50565b60008135905061040b816103e5565b92915050565b6000806040838503121561042857610427610321565b5b600061043685828601610347565b9250506020610447858286016103fc565b9150509250929050565b6000819050919050565b61046481610451565b811461046f57600080fd5b50565b6000813590506104818161045b565b92915050565b60006020828403121561049d5761049c610321565b5b60006104ab84828501610472565b91505092915050565b6104bd81610326565b82525050565b60006020820190506104d860008301846104b4565b92915050565b600082825260208201905092915050565b7f4572726f723a20466163746f727920616c72656164792072656769737465726560008201527f64207769746820746869732069642e0000000000000000000000000000000000602082015250565b600061054b602f836104de565b9150610556826104ef565b604082019050919050565b6000602082019050818103600083015261057a8161053e565b905091905056fea26469706673582212205d0b3be6ca96ec19644f910e67677032f7c682a49ea9d7256d716eafdb87ee6a64736f6c63430008110033",
  "linkReferences": {},
  "deployedLinkReferences": {}
}